:020000040800F2
:1000000060060020450200084D0200084F0200086B
:1000100051020008530200085502000800000000C9
:10002000000000000000000000000000570200086F
:1000300059020008000000005B0200085D02000891
:100040005F0200085F0200085F0200085F0200080C
:100050005F0200085F0200085F0200085F020008FC
:100060005F0200085F0200085F0200085F020008EC
:100070005F0200085F0200085F0200085F020008DC
:100080005F0200085F0200085F0200080000000035
:100090000000000000000000000000005F020008F7
:1000A0005F0200085F0200085F0200085F020008AC
:1000B0005F0200085F0200085F0200085F0200089C
:1000C0005F0200085F0200085F0200085F0200088C
:1000D0005F0200085F0200085F02000800000000E5
:1000E0005F0200085F0200085F02000800000000D5
:1000F0000000000000000000000000005F02000897
:10010000000000005F0200085F0200085F020008B4
:1001100000000000000000000000000000000000DF
:100120005F0200085F0200085F0200085F0200082B
:100130005F02000800000000000000000000000056
:100140000000000000000000000000005F02000846
:100150005F0200085F0200085F0200085F020008FB
:100160005F0200085F0200080000000000000000BD
:10017000000000000000000000000000000000007F
:10018000000000005F020008000000000000000006
:100190005F02000800F002F800F044F814A696E8A8
:1001A000000CB244B344DA4501D100F03BF8BAE8A0
:1001B0000F000FA696E83000A5EB040504EB060738
:1001C000AAEB0704A7F101074FEA15154FEA34140B
:1001D000A4F10104AC4201D300F024F813F0010FA4
:1001E00018BFFB1A43F0010300F001F8DBE71847E2
:1001F000AC0B0000BC0B0000704700000023002483
:1002000000250026103A28BF78C1FBD8520728BF26
:1002100030C148BF0B6070471FB500F0B1FD1FBD76
:1002200010B510BD00F031F81146FFF7F5FF00F0F2
:100230003FF900F04FF803B4FFF7F2FF03BC00F002
:1002400057F800000948804709480047FEE7FEE7E5
:10025000FEE7FEE7FEE7FEE7FEE7FEE7FEE7FEE776
:1002600004480549054A064B704700000103000891
:100270009501000860000020600600206002002058
:1002800060020020704770477047754600F02CF8F8
:10029000AE4605006946534620F00700854618B073
:1002A00020B5FFF7DDFFBDE820404FF000064FF01E
:1002B00000074FF000084FF0000BAC46ACE8C00957
:1002C000ACE8C009ACE8C009ACE8C00921F00701FE
:1002D0008D46704710B50446AFF300802046BDE858
:1002E0001040FFF7A8BF0000004870470000002042
:1002F00001491820ABBEFEE726000200704700004F
:100300004EF68851CEF20001086840F47000086093
:10031000704700000000000080B58AB0099043F6E5
:100320000001C4F20201086840F001000860FFE724
:1003300043F60000C4F2020000688007002801D4E0
:10034000FFE7F5E743F63001C4F20201086840F028
:1003500001000860086840F00200086040F20041B7
:10036000C4F20201086840F0100008600021C4F2E5
:100370000201086840F0800008602021C4F20201F8
:100380004FF4E040086043F64001C4F202010868FF
:1003900040F40030086044F20C41C4F200010868E7
:1003A00040F400400860086840F4005008600868A5
:1003B00020F480500860086820F4806008600868B5
:1003C00040F00400086044F21041C4F200010868E3
:1003D00020F400500860086820F480500860086825
:1003E00020F40060086044F21441C4F2000108687F
:1003F00040F400600860086820F008000860099870
:1004000000F0BFFA41EC100B51EC100B9FED240BE8
:1004100053EC102B0393029200F0C6FA41EC100B40
:1004200053EC102B9FED200B51EC100B00F022F938
:1004300041EC100B8DED060B9DED060B51EC100BF6
:1004400000F072FA05909DED060B8DED000B0598FE
:1004500000F097FA9DED001B41EC100B51EC110BD5
:1004600053EC102B00F09EFB029A039B41EC100B07
:1004700051EC100B00F098FA41EC100B51EC100B02
:1004800000F052FA04900599049800F00F0040EA39
:10049000011044F20841C4F2000108600AB080BDB6
:1004A00000000000000020400000000080846E4139
:1004B00080B582B0002001904FF41650FFF72CFF5A
:1004C000FFE700F01DF88DF803009DF803004F28AA
:1004D00007D1FFE740F21841C4F20201042008608E
:1004E000FFE79DF80300462808D1FFE740F21841D6
:1004F000C4F202014FF480200860FFE7E1E700004A
:10050000FFE744F20040C4F20000006880060028C3
:1005100001D4FFE7F5E744F20440C4F200000068AC
:10052000C0B2704710B591EA030F48BF83F0004393
:1005300000F14083841A71EB030C05D2121943EBCE
:100540000C03001B61EB0C014FEA1154A4EB135C8C
:10055000DFF81CE11EEA430F18BF9EEA445F00F07B
:10056000748021EA045123EA0E0343F48013DCF182
:10057000200E32D322FA0CFE10EB0E0023FA0CFEF2
:1005800041EB0E01CCF1200E03FA0EFE10EB0E0033
:10059000CCF1200E51F10001B1F5801F32D201EBF8
:1005A000045112FA0EF2BDE8104058BF7047401CCB
:1005B00038BF5FEA420218BF7047002814BF20F01E
:1005C000010041F100014FEA410313F5001F38BF5C
:1005D0007047A1F1C04100F0DFBA012A43EB0302EA
:1005E000ACF1200CDCF11F0E32BF4FF0000E23FAED
:1005F0000CF310EB030041EB0451B4EB115FD0D0CE
:10060000A1EB045101F58011490801EB04515FEAA7
:1006100030000ED350F1000038BF12FA0EFE08D1A0
:10062000BDE81040C9E7401C38BF5FEA4202CAD1AA
:10063000C3E7BDE810404FEA410313F5001F38BF80
:100640007047A1F1C04100F0A7BA9EEA445F08D00C
:1006500011EA5E0FBDE8104004BF01F00041002028
:100660007047BDE8104070B500F048FA64FBBE3E2C
:100670000000E0FF2DE9C04130B4DFF8A4C23CEA3D
:10068000111418BF3CEA131400F0ED801CEA111499
:1006900081EA030544EAD57418BF1CEA131500F07B
:1006A000C880A4EB050404F17F7404F500344FF016
:1006B000004545EAC12145EAC32341EA505143EAD6
:1006C00052534FEAC0204FEAC222994208BF9042DB
:1006D00000F09D804FEA13650FF24416765D4FEAF5
:1006E000134506FB05F7C7F1807706FB07F74FEACE
:1006F000D737A7FB03687642A7FB06CEC8F580383C
:1007000038BFA8F1010807FB08E6A6FB028C4FF0F2
:10071000000EE6FB03CEDCF1000CCEF1004E38BF3C
:10072000AEF1010EA6FB0C584FF00007E6FB0E875A
:10073000A1FB08C6A0FB07CE16EB0E064FF0000586
:1007400045F10005E1FB076515F1E04E7EBFA4F51C
:1007500080345FEA46066D4116F1800745F10005D9
:100760004FEA172747EA05674FEA15254FEA06665D
:10077000A6F1DE46B6F1805F20D9384605EBC4719C
:1007800024F0010C01EB0C11BCF1FE6F02D8F0BC9F
:10079000BDE8008124425CBF01F5801E9EEAC47F53
:1007A00002D4F0BCBDE80081244200F13980A1F1FF
:1007B000C041F0BCBDE8004100F0EEB94FEAD020E6
:1007C00040EA41504FEAD1214FEAD22242EA435255
:1007D0004FEAD323A7FB028607FB036605FB0266ED
:1007E0001EEA0E0F58BFA6EB0056B6EB00564FEAB6
:1007F000520E4EEAC37E18EB0E0E56EB530EBCD5CE
:1008000018EB02085E417F1C55F10005B5E74FF477
:1008100080154FF000074FF000064FF00008ACE7DE
:1008200001F1C04101F000414FF00000F0BCBDE813
:1008300000810CEA131511EA0C1F00D00CE013EA3A
:100840000C1F00F026804FF0000081EA030101F048
:100850000041F0BCBDE80081F0BCBDE8004181EA88
:10086000030100F099B9F0BCBDE8004170B500F09B
:1008700045F900BF097EFC3E00F007B84FF00000CC
:1008800081EA030101F00041704781EA030100F0B1
:1008900083B9F0BCBDE8004122494FF00000704729
:1008A000FFFDFBF9F7F5F4F2F0EEEDEBE9E8E6E435
:1008B000E3E1E0DEDDDBDAD8D7D5D4D3D1D0CFCDBC
:1008C000CCCBCAC8C7C6C5C4C2C1C0BFBEBDBCBBF5
:1008D000BAB9B8B7B6B5B4B3B2B1B0AFAEADACABF0
:1008E000AAA9A8A8A7A6A5A4A3A3A2A1A09F9F9ECA
:1008F0009D9C9C9B9A99999897979695959493937C
:10090000929191908F8F8E8E8D8C8C8B8B8A898912
:100910008888878786858584848383828281818095
:100920000000FF070000F87F4FEA1153A3F5806332
:10093000D3F11E03A8BFD3F1200C08DB4FF0004217
:1009400042EAC12252EA505232FA03F07047094299
:100950000BD4102BC4BF0020704703F5787CBCF18A
:10096000FF3F05D04FF0FF3070474FF00000704759
:1009700070B500F0C3F800BF499224800020704792
:10098000F0E7B0FA80F310FA03F10AD0C3F11D03C7
:1009900003F580634FEA03524FEA415002EBD12145
:1009A00070474FF00000704770B5DFF848C11CEA8F
:1009B000111E1EBF1CEA13159EEA0C0F95EA0C0FC0
:1009C00000F06F8081EA03044EEAD47EAE4421EA4F
:1009D0004C1123EA4C1341F4801143F48013AEF11F
:1009E0007F7EA1FB024CA0FB0365361955EB0C057D
:1009F000A1FB034C4CF10003A0FB021C16EB0C0600
:100A0000654153F10003094218BF46F0010613F493
:100A1000007F0BD14FEA03314FEA053041EA15510F
:100A200040EA165034036FF003020AE04FEAC32194
:100A30004FEAC52041EA555140EA5650F4026FF0A2
:100A4000020202EB2E4201EB025585EACE710AD07A
:100A50005FEA440C18BF24F0004450F1000041F15B
:100A6000000120EAD47040F2FE7C624500D270BDE5
:100A7000A84214BF4FF080444FF04044002E08BFFE
:100A80000024BEF1806FA8BFA1F1C041BDE8704055
:100A900080F2828001F1C04101F000414FF000007E
:100AA00070470CEA13159EEA0C0F18BF95EA0C0F5D
:100AB00006D081EA030E4FF000000EF0004170BD39
:100AC00000F01CF88900013E00F007B800F009B8FA
:100AD0004FEA430C5FEA5C5C08D081EA030100F056
:100AE0005BB84FEA410C5FEA5C5CF6D102494FF01B
:100AF000000070470000FF070000F87F0EF1020EB3
:100B00002EF0030E5EF8046B364205D4012A43EB47
:100B1000030515F5001F12D8012841EB010C1CF547
:100B2000001F0CD80ED14FEAD17C0CEB4C0C0CF111
:100B3000020C15F5001F08BF4CEBD37C04E04FF00E
:100B4000080C01E04FEAD37C0CEB4C0526FA05F6C5
:100B500006F00706B6F1040C06D20EEB860CBDE8D3
:100B600070404CF0010C6047DFE80CF0090B02020A
:100B70004FF00041A1F500214FF0000070BD194673
:100B80001046012851EB010418BFD4F5001484BFAE
:100B9000002001F0004170BD0808A0F500114FEAE7
:100BA0003101704710B591EA030F48BF83F000434D
:100BB0003FF5C0AC841A71EB030C07D28CF0004CEB
:100BC000121943EB0C03001B61EB0C014FEA1154AB
:100BD000A4EB135CDFF8A4E11EEA430F18BF9EEA02
:100BE000445F00F0B48021EA045123EA6E035242CC
:100BF000C3EB6E0338BF5B1EDCF1200E25D322FA57
:100C00000CFE10EB0E0043FA0CFE41EB0E01CCF192
:100C1000200E03FA0EFE10EB0E00CCF1200E51F167
:100C2000000129D401EB045112FA0EF2BDE8104084
:100C300058BF7047401C1CBFB2F1004F70470028DE
:100C40000CBF491C20F00100704712EB020E43EB71
:100C5000030218BF4FF0010E4EEA4202ACF1200C25
:100C6000DCF11E0E56D943FA0CFE10EB0E00CCF14F
:100C70001E0E51F1FF31D5D50EF1010E12FA0EFE06
:100C8000404141EB010101EB445C5FEA5C5C10D93F
:100C900001EB045110EBDE7038BFBEF1004FBDE830
:100CA000104018BF704700280CBF491C20F00100FD
:100CB000704734D24FEAD42C24F4006411F50011AB
:100CC0001BD0B1FA81F20B3AA41AA41ED2F1200370
:100CD000914030FA03F31943904001EBCC7101EBE2
:100CE0000451002CBDE81040A8BF704701F1C0417D
:100CF00001F000414FF000007047B0FA80F310FAA5
:100D000003F102D1BDE810407047E41A173C4805D2
:100D1000C90AE2E701EB0451BDE8104070474910F1
:100D20004FEA300001EB0451BDE8104002E04FF003
:100D3000000170474A0008BF0042F8D0B2F5001F1A
:100D400028BF704701F000414FF0000070479EEA55
:100D5000445F07D011EA5E0FBDE8104004BF0021D8
:100D600000207047BDE8104070B5FFF7C7FE00BF18
:100D700040DFF63E104683F0004170470000E0FF80
:100D8000F1EE100A4FF6FF71C0F2C03120EA010007
:100D900040F04070E1EE100A70470000AC0D000812
:0C0DA0000000002060060000FC010008BC
:040000050800019559
:00000001FF
